{"abi":[{"type":"constructor","inputs":[{"name":"_name","type":"string","internalType":"string"},{"name":"_symbol","type":"string","internalType":"string"},{"name":"_supply","type":"uint256","internalType":"uint256"},{"name":"_owner","type":"address","internalType":"address"}],"stateMutability":"nonpayable"},{"type":"function","name":"allowance","inputs":[{"name":"","type":"address","internalType":"address"},{"name":"","type":"address","internalType":"address"}],"outputs":[{"name":"","type":"uint256","internalType":"uint256"}],"stateMutability":"view"},{"type":"function","name":"approve","inputs":[{"name":"spender","type":"address","internalType":"address"},{"name":"amount","type":"uint256","internalType":"uint256"}],"outputs":[{"name":"success","type":"bool","internalType":"bool"}],"stateMutability":"nonpayable"},{"type":"function","name":"balanceOf","inputs":[{"name":"","type":"address","internalType":"address"}],"outputs":[{"name":"","type":"uint256","internalType":"uint256"}],"stateMutability":"view"},{"type":"function","name":"burn","inputs":[{"name":"amount","type":"uint256","internalType":"uint256"}],"outputs":[],"stateMutability":"nonpayable"},{"type":"function","name":"burnFrom","inputs":[{"name":"account","type":"address","internalType":"address"},{"name":"amount","type":"uint256","internalType":"uint256"}],"outputs":[],"stateMutability":"nonpayable"},{"type":"function","name":"decimals","inputs":[],"outputs":[{"name":"","type":"uint8","internalType":"uint8"}],"stateMutability":"view"},{"type":"function","name":"mint","inputs":[{"name":"to","type":"address","internalType":"address"},{"name":"amount","type":"uint256","internalType":"uint256"}],"outputs":[],"stateMutability":"nonpayable"},{"type":"function","name":"name","inputs":[],"outputs":[{"name":"","type":"string","internalType":"string"}],"stateMutability":"view"},{"type":"function","name":"owner","inputs":[],"outputs":[{"name":"","type":"address","internalType":"address"}],"stateMutability":"view"},{"type":"function","name":"pause","inputs":[],"outputs":[],"stateMutability":"nonpayable"},{"type":"function","name":"paused","inputs":[],"outputs":[{"name":"","type":"bool","internalType":"bool"}],"stateMutability":"view"},{"type":"function","name":"renounceOwnership","inputs":[],"outputs":[],"stateMutability":"nonpayable"},{"type":"function","name":"symbol","inputs":[],"outputs":[{"name":"","type":"string","internalType":"string"}],"stateMutability":"view"},{"type":"function","name":"totalSupply","inputs":[],"outputs":[{"name":"","type":"uint256","internalType":"uint256"}],"stateMutability":"view"},{"type":"function","name":"transfer","inputs":[{"name":"to","type":"address","internalType":"address"},{"name":"amount","type":"uint256","internalType":"uint256"}],"outputs":[{"name":"success","type":"bool","internalType":"bool"}],"stateMutability":"nonpayable"},{"type":"function","name":"transferFrom","inputs":[{"name":"from","type":"address","internalType":"address"},{"name":"to","type":"address","internalType":"address"},{"name":"amount","type":"uint256","internalType":"uint256"}],"outputs":[{"name":"success","type":"bool","internalType":"bool"}],"stateMutability":"nonpayable"},{"type":"function","name":"transferOwnership","inputs":[{"name":"newOwner","type":"address","internalType":"address"}],"outputs":[],"stateMutability":"nonpayable"},{"type":"function","name":"unpause","inputs":[],"outputs":[],"stateMutability":"nonpayable"},{"type":"event","name":"Approval","inputs":[{"name":"owner","type":"address","indexed":true,"internalType":"address"},{"name":"spender","type":"address","indexed":true,"internalType":"address"},{"name":"value","type":"uint256","indexed":false,"internalType":"uint256"}],"anonymous":false},{"type":"event","name":"OwnershipTransferred","inputs":[{"name":"previousOwner","type":"address","indexed":true,"internalType":"address"},{"name":"newOwner","type":"address","indexed":true,"internalType":"address"}],"anonymous":false},{"type":"event","name":"Paused","inputs":[{"name":"account","type":"address","indexed":false,"internalType":"address"}],"anonymous":false},{"type":"event","name":"Transfer","inputs":[{"name":"from","type":"address","indexed":true,"internalType":"address"},{"name":"to","type":"address","indexed":true,"internalType":"address"},{"name":"value","type":"uint256","indexed":false,"internalType":"uint256"}],"anonymous":false},{"type":"event","name":"Unpaused","inputs":[{"name":"account","type":"address","indexed":false,"internalType":"address"}],"anonymous":false},{"type":"error","name":"EnforcedPause","inputs":[]},{"type":"error","name":"ExpectedPause","inputs":[]},{"type":"error","name":"OwnableInvalidOwner","inputs":[{"name":"owner","type":"address","internalType":"address"}]},{"type":"error","name":"OwnableUnauthorizedAccount","inputs":[{"name":"account","type":"address","internalType":"address"}]}],"bytecode":{"object":"0x60c0604052600c60809081526b21b7b3b734bc102a37b5b2b760a11b60a05260019061002b9082610268565b506040805180820190915260038152620868eb60eb1b60208201526002906100539082610268565b5034801561005f575f5ffd5b506040516111ad3803806111ad83398101604081905261007e916103ab565b806001600160a01b0381166100ad57604051631e4fbdf760e01b81525f60048201526024015b60405180910390fd5b6100b681610181565b506001600160a01b03811661010d5760405162461bcd60e51b815260206004820152601560248201527f496e76616c6964206f776e65722061646472657373000000000000000000000060448201526064016100a4565b60016101198582610268565b5060026101268482610268565b5060038290556001600160a01b0381165f818152600460209081526040808320869055518581527fddf252ad1be2c89b69c2b068fc378daa952ba7f163c4a11628f55a4df523b3ef910160405180910390a350505050610438565b5f80546001600160a01b038381166001600160a01b0319831681178455604051919092169283917f8be0079c531659141344cd1fd0a4f28419497f9722a3daafe3b4186f6b6457e09190a35050565b634e487b7160e01b5f52604160045260245ffd5b600181811c908216806101f857607f821691505b60208210810361021657634e487b7160e01b5f52602260045260245ffd5b50919050565b601f82111561026357805f5260205f20601f840160051c810160208510156102415750805b601f840160051c820191505b81811015610260575f815560010161024d565b50505b505050565b81516001600160401b03811115610281576102816101d0565b6102958161028f84546101e4565b8461021c565b6020601f8211600181146102c7575f83156102b05750848201515b5f19600385901b1c1916600184901b178455610260565b5f84815260208120601f198516915b828110156102f657878501518255602094850194600190920191016102d6565b508482101561031357868401515f19600387901b60f8161c191681555b50505050600190811b01905550565b5f82601f830112610331575f5ffd5b81516001600160401b0381111561034a5761034a6101d0565b604051601f8201601f19908116603f011681016001600160401b0381118282101715610378576103786101d0565b60405281815283820160200185101561038f575f5ffd5b8160208501602083015e5f918101602001919091529392505050565b5f5f5f5f608085870312156103be575f5ffd5b84516001600160401b038111156103d3575f5ffd5b6103df87828801610322565b602087015190955090506001600160401b038111156103fc575f5ffd5b61040887828801610322565b60408701516060880151919550935090506001600160a01b038116811461042d575f5ffd5b939692955090935050565b610d68806104455f395ff3fe608060405234801561000f575f5ffd5b5060043610610111575f3560e01c806370a082311161009e5780638da5cb5b1161006e5780638da5cb5b1461021d57806395d89b4114610237578063a9059cbb1461023f578063dd62ed3e14610252578063f2fde38b1461027c575f5ffd5b806370a08231146101db578063715018a6146101fa57806379cc6790146102025780638456cb5914610215575f5ffd5b8063313ce567116100e4578063313ce567146101805780633f4ba83a1461019a57806340c10f19146101a457806342966c68146101b75780635c975abb146101ca575f5ffd5b806306fdde0314610115578063095ea7b31461013357806318160ddd1461015657806323b872dd1461016d575b5f5ffd5b61011d61028f565b60405161012a9190610ba1565b60405180910390f35b610146610141366004610bf1565b61031b565b604051901515815260200161012a565b61015f60035481565b60405190815260200161012a565b61014661017b366004610c19565b6103db565b610188601281565b60405160ff909116815260200161012a565b6101a26105f0565b005b6101a26101b2366004610bf1565b610602565b6101a26101c5366004610c53565b6106cb565b5f54600160a01b900460ff16610146565b61015f6101e9366004610c6a565b60046020525f908152604090205481565b6101a261076d565b6101a2610210366004610bf1565b61077e565b6101a26108c5565b5f546040516001600160a01b03909116815260200161012a565b61011d6108d5565b61014661024d366004610bf1565b6108e2565b61015f610260366004610c8a565b600560209081525f928352604080842090915290825290205481565b6101a261028a366004610c6a565b610a00565b6001805461029c90610cbb565b80601f01602080910402602001604051908101604052809291908181526020018280546102c890610cbb565b80156103135780601f106102ea57610100808354040283529160200191610313565b820191905f5260205f20905b8154815290600101906020018083116102f657829003601f168201915b505050505081565b5f6001600160a01b0383166103775760405162461bcd60e51b815260206004820152601760248201527f417070726f766520746f207a65726f206164647265737300000000000000000060448201526064015b60405180910390fd5b335f8181526005602090815260408083206001600160a01b03881680855290835292819020869055518581529192917f8c5be1e5ebec7d5bd14f71427d1e84f3dd0314c0f7b2291e5b200ac8c7c3b925910160405180910390a35060015b92915050565b5f6103e4610a3d565b6001600160a01b03841661043a5760405162461bcd60e51b815260206004820152601a60248201527f5472616e736665722066726f6d207a65726f2061646472657373000000000000604482015260640161036e565b6001600160a01b03831661048b5760405162461bcd60e51b81526020600482015260186024820152775472616e7366657220746f207a65726f206164647265737360401b604482015260640161036e565b6001600160a01b0384165f90815260046020526040902054828110156104ea5760405162461bcd60e51b8152602060048201526014602482015273496e73756666696369656e742062616c616e636560601b604482015260640161036e565b6001600160a01b0385165f908152600560209081526040808320338452909152902054838110156105565760405162461bcd60e51b8152602060048201526016602482015275496e73756666696369656e7420616c6c6f77616e636560501b604482015260640161036e565b6001600160a01b038087165f9081526004602081815260408084208988039055600582528084203385528252808420898703905593891683525290812080548692906105a3908490610cf3565b92505081905550846001600160a01b0316866001600160a01b03165f516020610d135f395f51905f52866040516105dc91815260200190565b60405180910390a350600195945050505050565b6105f8610a67565b610600610a93565b565b61060a610a67565b6001600160a01b0382166106575760405162461bcd60e51b81526020600482015260146024820152734d696e7420746f207a65726f206164647265737360601b604482015260640161036e565b8060035f8282546106689190610cf3565b90915550506001600160a01b0382165f9081526004602052604081208054839290610694908490610cf3565b90915550506040518181526001600160a01b038316905f905f516020610d135f395f51905f52906020015b60405180910390a35050565b6106d3610a3d565b335f90815260046020526040902054818110156107325760405162461bcd60e51b815260206004820152601c60248201527f496e73756666696369656e742062616c616e636520746f206275726e00000000604482015260640161036e565b335f8181526004602090815260408083208686039055600380548790039055518581529192915f516020610d135f395f51905f5291016106bf565b610775610a67565b6106005f610ae7565b610786610a3d565b6001600160a01b0382165f90815260046020526040902054818110156107ee5760405162461bcd60e51b815260206004820152601c60248201527f496e73756666696369656e742062616c616e636520746f206275726e00000000604482015260640161036e565b6001600160a01b0383165f908152600560209081526040808320338452909152902054828110156108615760405162461bcd60e51b815260206004820152601e60248201527f496e73756666696369656e7420616c6c6f77616e636520746f206275726e0000604482015260640161036e565b6001600160a01b0384165f81815260056020908152604080832033845282528083208786039055838352600482528083208787039055600380548890039055518681529192915f516020610d135f395f51905f52910160405180910390a350505050565b6108cd610a67565b610600610b36565b6002805461029c90610cbb565b5f6108eb610a3d565b6001600160a01b03831661093c5760405162461bcd60e51b81526020600482015260186024820152775472616e7366657220746f207a65726f206164647265737360401b604482015260640161036e565b335f90815260046020526040902054828110156109925760405162461bcd60e51b8152602060048201526014602482015273496e73756666696369656e742062616c616e636560601b604482015260640161036e565b335f9081526004602052604080822085840390556001600160a01b0386168252812080548592906109c4908490610cf3565b90915550506040518381526001600160a01b0385169033905f516020610d135f395f51905f529060200160405180910390a35060019392505050565b610a08610a67565b6001600160a01b038116610a3157604051631e4fbdf760e01b81525f600482015260240161036e565b610a3a81610ae7565b50565b5f54600160a01b900460ff16156106005760405163d93c066560e01b815260040160405180910390fd5b5f546001600160a01b031633146106005760405163118cdaa760e01b815233600482015260240161036e565b610a9b610b78565b5f805460ff60a01b191690557f5db9ee0a495bf2e6ff9c91a7834c1ba4fdd244a5e8aa4e537bd38aeae4b073aa335b6040516001600160a01b03909116815260200160405180910390a1565b5f80546001600160a01b038381166001600160a01b0319831681178455604051919092169283917f8be0079c531659141344cd1fd0a4f28419497f9722a3daafe3b4186f6b6457e09190a35050565b610b3e610a3d565b5f805460ff60a01b1916600160a01b1790557f62e78cea01bee320cd4e420270b5ea74000d11b0c9f74754ebdbfc544b05a258610aca3390565b5f54600160a01b900460ff1661060057604051638dfc202b60e01b815260040160405180910390fd5b602081525f82518060208401528060208501604085015e5f604082850101526040601f19601f83011684010191505092915050565b80356001600160a01b0381168114610bec575f5ffd5b919050565b5f5f60408385031215610c02575f5ffd5b610c0b83610bd6565b946020939093013593505050565b5f5f5f60608486031215610c2b575f5ffd5b610c3484610bd6565b9250610c4260208501610bd6565b929592945050506040919091013590565b5f60208284031215610c63575f5ffd5b5035919050565b5f60208284031215610c7a575f5ffd5b610c8382610bd6565b9392505050565b5f5f60408385031215610c9b575f5ffd5b610ca483610bd6565b9150610cb260208401610bd6565b90509250929050565b600181811c90821680610ccf57607f821691505b602082108103610ced57634e487b7160e01b5f52602260045260245ffd5b50919050565b808201808211156103d557634e487b7160e01b5f52601160045260245ffdfeddf252ad1be2c89b69c2b068fc378daa952ba7f163c4a11628f55a4df523b3efa2646970667358221220864228335d098ad534baf540b3e97e76a32d578e8475f6c092921e43f33d36eb64736f6c634300081c0033","linkReferences":{}},"methodIdentifiers":{"allowance(address,address)":"dd62ed3e","approve(address,uint256)":"095ea7b3","balanceOf(address)":"70a08231","burn(uint256)":"42966c68","burnFrom(address,uint256)":"79cc6790","decimals()":"313ce567","mint(address,uint256)":"40c10f19","name()":"06fdde03","owner()":"8da5cb5b","pause()":"8456cb59","paused()":"5c975abb","renounceOwnership()":"715018a6","symbol()":"95d89b41","totalSupply()":"18160ddd","transfer(address,uint256)":"a9059cbb","transferFrom(address,address,uint256)":"23b872dd","transferOwnership(address)":"f2fde38b","unpause()":"3f4ba83a"},"id":34}