{"abi":[{"type":"constructor","inputs":[],"stateMutability":"nonpayable"},{"type":"function","name":"agentReputation","inputs":[{"name":"","type":"address","internalType":"address"}],"outputs":[{"name":"","type":"uint256","internalType":"uint256"}],"stateMutability":"view"},{"type":"function","name":"applications","inputs":[{"name":"","type":"uint256","internalType":"uint256"},{"name":"","type":"uint256","internalType":"uint256"}],"outputs":[{"name":"agent","type":"address","internalType":"address"},{"name":"proposalURI","type":"string","internalType":"string"},{"name":"appliedAt","type":"uint256","internalType":"uint256"}],"stateMutability":"view"},{"type":"function","name":"applyForTask","inputs":[{"name":"_taskId","type":"uint256","internalType":"uint256"},{"name":"_proposalURI","type":"string","internalType":"string"}],"outputs":[],"stateMutability":"nonpayable"},{"type":"function","name":"arbitrator","inputs":[],"outputs":[{"name":"","type":"address","internalType":"address"}],"stateMutability":"view"},{"type":"function","name":"assignTask","inputs":[{"name":"_taskId","type":"uint256","internalType":"uint256"},{"name":"_assignee","type":"address","internalType":"address"}],"outputs":[],"stateMutability":"nonpayable"},{"type":"function","name":"cancelTask","inputs":[{"name":"_taskId","type":"uint256","internalType":"uint256"}],"outputs":[],"stateMutability":"nonpayable"},{"type":"function","name":"completeTask","inputs":[{"name":"_taskId","type":"uint256","internalType":"uint256"}],"outputs":[],"stateMutability":"nonpayable"},{"type":"function","name":"createTask","inputs":[{"name":"_metadataURI","type":"string","internalType":"string"}],"outputs":[{"name":"","type":"uint256","internalType":"uint256"}],"stateMutability":"payable"},{"type":"function","name":"disputeTask","inputs":[{"name":"_taskId","type":"uint256","internalType":"uint256"}],"outputs":[],"stateMutability":"nonpayable"},{"type":"function","name":"getApplications","inputs":[{"name":"_taskId","type":"uint256","internalType":"uint256"}],"outputs":[{"name":"","type":"tuple[]","internalType":"struct ICognixMarket.Application[]","components":[{"name":"agent","type":"address","internalType":"address"},{"name":"proposalURI","type":"string","internalType":"string"},{"name":"appliedAt","type":"uint256","internalType":"uint256"}]}],"stateMutability":"view"},{"type":"function","name":"owner","inputs":[],"outputs":[{"name":"","type":"address","internalType":"address"}],"stateMutability":"view"},{"type":"function","name":"renounceOwnership","inputs":[],"outputs":[],"stateMutability":"nonpayable"},{"type":"function","name":"resolveDispute","inputs":[{"name":"_taskId","type":"uint256","internalType":"uint256"},{"name":"_payAgent","type":"bool","internalType":"bool"}],"outputs":[],"stateMutability":"nonpayable"},{"type":"function","name":"setArbitrator","inputs":[{"name":"_arbitrator","type":"address","internalType":"address"}],"outputs":[],"stateMutability":"nonpayable"},{"type":"function","name":"submitProof","inputs":[{"name":"_taskId","type":"uint256","internalType":"uint256"},{"name":"_proofURI","type":"string","internalType":"string"}],"outputs":[],"stateMutability":"nonpayable"},{"type":"function","name":"taskCount","inputs":[],"outputs":[{"name":"","type":"uint256","internalType":"uint256"}],"stateMutability":"view"},{"type":"function","name":"tasks","inputs":[{"name":"","type":"uint256","internalType":"uint256"}],"outputs":[{"name":"employer","type":"address","internalType":"address"},{"name":"assignee","type":"address","internalType":"address"},{"name":"metadataURI","type":"string","internalType":"string"},{"name":"reward","type":"uint256","internalType":"uint256"},{"name":"status","type":"uint8","internalType":"enum ICognixMarket.TaskStatus"},{"name":"createdAt","type":"uint256","internalType":"uint256"},{"name":"updatedAt","type":"uint256","internalType":"uint256"}],"stateMutability":"view"},{"type":"function","name":"transferOwnership","inputs":[{"name":"newOwner","type":"address","internalType":"address"}],"outputs":[],"stateMutability":"nonpayable"},{"type":"event","name":"DisputeRaised","inputs":[{"name":"taskId","type":"uint256","indexed":true,"internalType":"uint256"},{"name":"raiser","type":"address","indexed":true,"internalType":"address"}],"anonymous":false},{"type":"event","name":"DisputeResolved","inputs":[{"name":"taskId","type":"uint256","indexed":true,"internalType":"uint256"},{"name":"completed","type":"bool","indexed":false,"internalType":"bool"}],"anonymous":false},{"type":"event","name":"OwnershipTransferred","inputs":[{"name":"previousOwner","type":"address","indexed":true,"internalType":"address"},{"name":"newOwner","type":"address","indexed":true,"internalType":"address"}],"anonymous":false},{"type":"event","name":"ProofSubmitted","inputs":[{"name":"taskId","type":"uint256","indexed":true,"internalType":"uint256"},{"name":"proofURI","type":"string","indexed":false,"internalType":"string"}],"anonymous":false},{"type":"event","name":"TaskApplied","inputs":[{"name":"taskId","type":"uint256","indexed":true,"internalType":"uint256"},{"name":"agent","type":"address","indexed":true,"internalType":"address"},{"name":"proposalURI","type":"string","indexed":false,"internalType":"string"}],"anonymous":false},{"type":"event","name":"TaskAssigned","inputs":[{"name":"taskId","type":"uint256","indexed":true,"internalType":"uint256"},{"name":"assignee","type":"address","indexed":true,"internalType":"address"}],"anonymous":false},{"type":"event","name":"TaskCancelled","inputs":[{"name":"taskId","type":"uint256","indexed":true,"internalType":"uint256"}],"anonymous":false},{"type":"event","name":"TaskCompleted","inputs":[{"name":"taskId","type":"uint256","indexed":true,"internalType":"uint256"}],"anonymous":false},{"type":"event","name":"TaskCreated","inputs":[{"name":"taskId","type":"uint256","indexed":true,"internalType":"uint256"},{"name":"employer","type":"address","indexed":true,"internalType":"address"},{"name":"reward","type":"uint256","indexed":false,"internalType":"uint256"},{"name":"metadataURI","type":"string","indexed":false,"internalType":"string"}],"anonymous":false},{"type":"error","name":"OwnableInvalidOwner","inputs":[{"name":"owner","type":"address","internalType":"address"}]},{"type":"error","name":"OwnableUnauthorizedAccount","inputs":[{"name":"account","type":"address","internalType":"address"}]},{"type":"error","name":"ReentrancyGuardReentrantCall","inputs":[]}],"bytecode":{"object":"0x6080604052348015600e575f5ffd5b5060017f9b779b17422d0df92223018b32b4d1fa46e071723d6817e2486d003becc55f00553380605757604051631e4fbdf760e01b81525f600482015260240160405180910390fd5b605e816075565b50600280546001600160a01b0319163317905560c4565b5f80546001600160a01b038381166001600160a01b0319831681178455604051919092169283917f8be0079c531659141344cd1fd0a4f28419497f9722a3daafe3b4186f6b6457e09190a35050565b611959806100d15f395ff3fe608060405260043610610105575f3560e01c80638d97767211610092578063b0eefabe11610062578063b0eefabe146102dd578063b6cb58a5146102fc578063bc8c937d14610311578063e1e295581461033d578063f2fde38b1461035c575f5ffd5b80638d977672146102515780638da5cb5b1461028357806390ce67871461029f57806397d9c23e146102be575f5ffd5b806354de6e32116100d857806354de6e321461018e5780636cc6cde1146101b9578063715018a6146101f05780637a870b63146102045780637eec20a814610232575f5ffd5b8063111002aa146101095780632af005101461012f57806334b25ee2146101505780635293ee811461016f575b5f5ffd5b61011c61011736600461140c565b61037b565b6040519081526020015b60405180910390f35b34801561013a575f5ffd5b5061014e61014936600461144b565b610542565b005b34801561015b575f5ffd5b5061014e61016a366004611493565b610649565b34801561017a575f5ffd5b5061014e6101893660046114e0565b6108db565b348015610199575f5ffd5b5061011c6101a836600461150a565b60056020525f908152604090205481565b3480156101c4575f5ffd5b506002546101d8906001600160a01b031681565b6040516001600160a01b039091168152602001610126565b3480156101fb575f5ffd5b5061014e6109d1565b34801561020f575f5ffd5b5061022361021e36600461152a565b6109e4565b60405161012693929190611578565b34801561023d575f5ffd5b5061014e61024c3660046115ab565b610ab4565b34801561025c575f5ffd5b5061027061026b3660046115ab565b610c38565b60405161012697969594939291906115d6565b34801561028e575f5ffd5b505f546001600160a01b03166101d8565b3480156102aa575f5ffd5b5061014e6102b936600461144b565b610d0a565b3480156102c9575f5ffd5b5061014e6102d83660046115ab565b610e5b565b3480156102e8575f5ffd5b5061014e6102f736600461150a565b610f99565b348015610307575f5ffd5b5061011c60015481565b34801561031c575f5ffd5b5061033061032b3660046115ab565b610fc3565b6040516101269190611643565b348015610348575f5ffd5b5061014e6103573660046115ab565b6110e1565b348015610367575f5ffd5b5061014e61037636600461150a565b6112c5565b5f5f34116103c55760405162461bcd60e51b81526020600482015260126024820152710526577617264206d757374206265203e20360741b60448201526064015b60405180910390fd5b5f60015f81546103d4906116d3565b91905081905590506040518060e00160405280336001600160a01b031681526020015f6001600160a01b0316815260200185858080601f0160208091040260200160405190810160405280939291908181526020018383808284375f92018290525093855250503460208401525060409091019081524260208083018290526040928301919091525f84815260038252829020835181546001600160a01b03199081166001600160a01b03928316178355928501516001830180549094169116179091559082015160028201906104ab908261178f565b5060608201516003820155608082015160048201805460ff191660018360058111156104d9576104d96115c2565b021790555060a0820151816005015560c08201518160060155905050336001600160a01b0316817fedce45cc3fc2bea98c94b72104f4a750dcc91bd183a01870ed4f93a365eba5b934878760405161053393929190611872565b60405180910390a39392505050565b5f8381526003602052604090206001015483906001600160a01b0316331461059c5760405162461bcd60e51b815260206004820152600d60248201526c4f6e6c792061737369676e656560981b60448201526064016103bc565b836001805f8381526003602052604090206004015460ff1660058111156105c5576105c56115c2565b146105e25760405162461bcd60e51b81526004016103bc90611894565b5f868152600360205260409081902060048101805460ff19166002179055426006909101555186907fc577bdeb8da1059fec56a8d1554e25846f18ebf046c214b145cac25f76bda3509061063990889088906118c1565b60405180910390a2505050505050565b610651611302565b6002546001600160a01b0316331461069d5760405162461bcd60e51b815260206004820152600f60248201526e27b7363c9030b93134ba3930ba37b960891b60448201526064016103bc565b5f8281526003602052604090206005600482015460ff1660058111156106c5576106c56115c2565b146107015760405162461bcd60e51b815260206004820152600c60248201526b139bdd08191a5cdc1d5d195960a21b60448201526064016103bc565b81156107df5760048101805460ff1916600317905560018101546001600160a01b03165f90815260056020526040812080549161073d836116d3565b9091555050600181015460038201546040515f926001600160a01b031691908381818185875af1925050503d805f8114610792576040519150601f19603f3d011682016040523d82523d5f602084013e610797565b606091505b50509050806107d95760405162461bcd60e51b815260206004820152600e60248201526d14185e5b595b9d0819985a5b195960921b60448201526064016103bc565b50610884565b6004818101805460ff19169091179055805460038201546040515f926001600160a01b031691908381818185875af1925050503d805f811461083c576040519150601f19603f3d011682016040523d82523d5f602084013e610841565b606091505b50509050806108825760405162461bcd60e51b815260206004820152600d60248201526c1499599d5b990819985a5b1959609a1b60448201526064016103bc565b505b827f5a87909bff68caaaaf0b3fd9c74eeccc928832f879315e5c6fb7a73612f26c0c836040516108b8911515815260200190565b60405180910390a2506108d760015f5160206119045f395f51905f5255565b5050565b5f8281526003602052604090205482906001600160a01b031633146109125760405162461bcd60e51b81526004016103bc906118dc565b825f805f8381526003602052604090206004015460ff16600581111561093a5761093a6115c2565b146109575760405162461bcd60e51b81526004016103bc90611894565b5f85815260036020526040808220600180820180546001600160a01b0319166001600160a01b038a1690811790915560048301805460ff1916909217909155426006909201919091559051909187917f52476d55ecef5cf13caa64038f297fe6bbf865d9584a98b8722a15a6d5db128f9190a35050505050565b6109d961131d565b6109e25f611349565b565b6004602052815f5260405f2081815481106109fd575f80fd5b5f918252602090912060039091020180546001820180546001600160a01b039092169450919250610a2d9061170b565b80601f0160208091040260200160405190810160405280929190818152602001828054610a599061170b565b8015610aa45780601f10610a7b57610100808354040283529160200191610aa4565b820191905f5260205f20905b815481529060010190602001808311610a8757829003601f168201915b5050505050908060020154905083565b5f8181526003602052604090205481906001600160a01b03163314610aeb5760405162461bcd60e51b81526004016103bc906118dc565b815f805f8381526003602052604090206004015460ff166005811115610b1357610b136115c2565b14610b305760405162461bcd60e51b81526004016103bc90611894565b610b38611302565b5f8481526003602081905260408083206004808201805460ff1916909117905542600682015580549281015491519093926001600160a01b031691908381818185875af1925050503d805f8114610baa576040519150601f19603f3d011682016040523d82523d5f602084013e610baf565b606091505b5050905080610bf05760405162461bcd60e51b815260206004820152600d60248201526c1499599d5b990819985a5b1959609a1b60448201526064016103bc565b60405186907fc6eacc3aa5b2aa77b5a826b832a804ca0b71830ec74f9aa57a15edd978c31ed6905f90a25050610c3260015f5160206119045f395f51905f5255565b50505050565b60036020525f90815260409020805460018201546002830180546001600160a01b03938416949290931692610c6c9061170b565b80601f0160208091040260200160405190810160405280929190818152602001828054610c989061170b565b8015610ce35780601f10610cba57610100808354040283529160200191610ce3565b820191905f5260205f20905b815481529060010190602001808311610cc657829003601f168201915b505050506003830154600484015460058501546006909501549394919360ff909116925087565b825f805f8381526003602052604090206004015460ff166005811115610d3257610d326115c2565b14610d4f5760405162461bcd60e51b81526004016103bc90611894565b60045f8681526020019081526020015f206040518060600160405280336001600160a01b0316815260200186868080601f0160208091040260200160405190810160405280939291908181526020018383808284375f9201829052509385525050426020938401525083546001808201865594825290829020835160039092020180546001600160a01b0319166001600160a01b03909216919091178155908201519192909190820190610e03908261178f565b50604082015181600201555050336001600160a01b0316857f4cb4528f41569ebb19d70648b6fd4a79ed373162227a9a4de39fc41ab5e657a38686604051610e4c9291906118c1565b60405180910390a35050505050565b5f81815260036020526040902080546001600160a01b0316331480610e8c575060018101546001600160a01b031633145b610ec95760405162461bcd60e51b815260206004820152600e60248201526d139bdd08185d5d1a1bdc9a5e995960921b60448201526064016103bc565b6001600482015460ff166005811115610ee457610ee46115c2565b1480610f0857506002600482015460ff166005811115610f0657610f066115c2565b145b610f545760405162461bcd60e51b815260206004820152601a60248201527f496e76616c69642073746174757320666f72206469737075746500000000000060448201526064016103bc565b60048101805460ff19166005179055426006820155604051339083907f84a477df8a28a4276ca6dee4458a06c3015f30c477d9c949ede4e13ff8a552b4905f90a35050565b610fa161131d565b600280546001600160a01b0319166001600160a01b0392909216919091179055565b606060045f8381526020019081526020015f20805480602002602001604051908101604052809291908181526020015f905b828210156110d6575f84815260209081902060408051606081019091526003850290910180546001600160a01b03168252600181018054929391929184019161103d9061170b565b80601f01602080910402602001604051908101604052809291908181526020018280546110699061170b565b80156110b45780601f1061108b576101008083540402835291602001916110b4565b820191905f5260205f20905b81548152906001019060200180831161109757829003601f168201915b5050505050815260200160028201548152505081526020019060010190610ff5565b505050509050919050565b5f8181526003602052604090205481906001600160a01b031633146111185760405162461bcd60e51b81526004016103bc906118dc565b611120611302565b5f8281526003602052604090206002600482015460ff166005811115611148576111486115c2565b148061116c57506001600482015460ff16600581111561116a5761116a6115c2565b145b6111aa5760405162461bcd60e51b815260206004820152600f60248201526e43616e6e6f7420636f6d706c65746560881b60448201526064016103bc565b60048101805460ff1916600317905542600682015560018101546001600160a01b03165f9081526005602052604081208054916111e6836116d3565b9091555050600181015460038201546040515f926001600160a01b031691908381818185875af1925050503d805f811461123b576040519150601f19603f3d011682016040523d82523d5f602084013e611240565b606091505b50509050806112835760405162461bcd60e51b815260206004820152600f60248201526e151c985b9cd9995c8819985a5b1959608a1b60448201526064016103bc565b60405184907fc1fa7142cfb933d0855114a3bffde296944c30b727f297c14d0db4d553d3a5c7905f90a250506108d760015f5160206119045f395f51905f5255565b6112cd61131d565b6001600160a01b0381166112f657604051631e4fbdf760e01b81525f60048201526024016103bc565b6112ff81611349565b50565b61130a611398565b60025f5160206119045f395f51905f5255565b5f546001600160a01b031633146109e25760405163118cdaa760e01b81523360048201526024016103bc565b5f80546001600160a01b038381166001600160a01b0319831681178455604051919092169283917f8be0079c531659141344cd1fd0a4f28419497f9722a3daafe3b4186f6b6457e09190a35050565b5f5160206119045f395f51905f52546002036109e257604051633ee5aeb560e01b815260040160405180910390fd5b5f5f83601f8401126113d7575f5ffd5b50813567ffffffffffffffff8111156113ee575f5ffd5b602083019150836020828501011115611405575f5ffd5b9250929050565b5f5f6020838503121561141d575f5ffd5b823567ffffffffffffffff811115611433575f5ffd5b61143f858286016113c7565b90969095509350505050565b5f5f5f6040848603121561145d575f5ffd5b83359250602084013567ffffffffffffffff81111561147a575f5ffd5b611486868287016113c7565b9497909650939450505050565b5f5f604083850312156114a4575f5ffd5b82359150602083013580151581146114ba575f5ffd5b809150509250929050565b80356001600160a01b03811681146114db575f5ffd5b919050565b5f5f604083850312156114f1575f5ffd5b82359150611501602084016114c5565b90509250929050565b5f6020828403121561151a575f5ffd5b611523826114c5565b9392505050565b5f5f6040838503121561153b575f5ffd5b50508035926020909101359150565b5f81518084528060208401602086015e5f602082860101526020601f19601f83011685010191505092915050565b6001600160a01b03841681526060602082018190525f9061159b9083018561154a565b9050826040830152949350505050565b5f602082840312156115bb575f5ffd5b5035919050565b634e487b7160e01b5f52602160045260245ffd5b6001600160a01b0388811682528716602082015260e0604082018190525f906116019083018861154a565b90508560608301526006851061162557634e487b7160e01b5f52602160045260245ffd5b8460808301528360a08301528260c083015298975050505050505050565b5f602082016020835280845180835260408501915060408160051b8601019250602086015f5b828110156116c757868503603f19018452815180516001600160a01b031686526020808201516060918801829052906116a49088018261154a565b604092830151979092019690965294506020938401939190910190600101611669565b50929695505050505050565b5f600182016116f057634e487b7160e01b5f52601160045260245ffd5b5060010190565b634e487b7160e01b5f52604160045260245ffd5b600181811c9082168061171f57607f821691505b60208210810361173d57634e487b7160e01b5f52602260045260245ffd5b50919050565b601f82111561178a57805f5260205f20601f840160051c810160208510156117685750805b601f840160051c820191505b81811015611787575f8155600101611774565b50505b505050565b815167ffffffffffffffff8111156117a9576117a96116f7565b6117bd816117b7845461170b565b84611743565b6020601f8211600181146117ef575f83156117d85750848201515b5f19600385901b1c1916600184901b178455611787565b5f84815260208120601f198516915b8281101561181e57878501518255602094850194600190920191016117fe565b508482101561183b57868401515f19600387901b60f8161c191681555b50505050600190811b01905550565b81835281816020850137505f828201602090810191909152601f909101601f19169091010190565b838152604060208201525f61188b60408301848661184a565b95945050505050565b602080825260139082015272496e76616c6964207461736b2073746174757360681b604082015260600190565b602081525f6118d460208301848661184a565b949350505050565b6020808252600d908201526c27b7363c9032b6b83637bcb2b960991b60408201526060019056fe9b779b17422d0df92223018b32b4d1fa46e071723d6817e2486d003becc55f00a2646970667358221220a094008743fc80a2190d8867e7de26391c7192183dfb31786884115d8f8a6fe164736f6c634300081c0033","linkReferences":{}},"methodIdentifiers":{"agentReputation(address)":"54de6e32","applications(uint256,uint256)":"7a870b63","applyForTask(uint256,string)":"90ce6787","arbitrator()":"6cc6cde1","assignTask(uint256,address)":"5293ee81","cancelTask(uint256)":"7eec20a8","completeTask(uint256)":"e1e29558","createTask(string)":"111002aa","disputeTask(uint256)":"97d9c23e","getApplications(uint256)":"bc8c937d","owner()":"8da5cb5b","renounceOwnership()":"715018a6","resolveDispute(uint256,bool)":"34b25ee2","setArbitrator(address)":"b0eefabe","submitProof(uint256,string)":"2af00510","taskCount()":"b6cb58a5","tasks(uint256)":"8d977672","transferOwnership(address)":"f2fde38b"},"id":20}