{"abi":[{"type":"constructor","inputs":[{"name":"_nativeToken","type":"address","internalType":"address"}],"stateMutability":"nonpayable"},{"type":"function","name":"DEADLINE_EXTENSION","inputs":[],"outputs":[{"name":"","type":"uint256","internalType":"uint256"}],"stateMutability":"view"},{"type":"function","name":"agentReputation","inputs":[{"name":"","type":"address","internalType":"address"}],"outputs":[{"name":"","type":"uint256","internalType":"uint256"}],"stateMutability":"view"},{"type":"function","name":"agentStats","inputs":[{"name":"","type":"address","internalType":"address"}],"outputs":[{"name":"totalTasks","type":"uint256","internalType":"uint256"},{"name":"completedTasks","type":"uint256","internalType":"uint256"},{"name":"disputedTasks","type":"uint256","internalType":"uint256"},{"name":"totalEarned","type":"uint256","internalType":"uint256"},{"name":"score","type":"uint256","internalType":"uint256"}],"stateMutability":"view"},{"type":"function","name":"applications","inputs":[{"name":"","type":"uint256","internalType":"uint256"},{"name":"","type":"uint256","internalType":"uint256"}],"outputs":[{"name":"agent","type":"address","internalType":"address"},{"name":"proposalURI","type":"string","internalType":"string"},{"name":"stakedAmount","type":"uint256","internalType":"uint256"},{"name":"appliedAt","type":"uint256","internalType":"uint256"}],"stateMutability":"view"},{"type":"function","name":"applyForTask","inputs":[{"name":"_taskId","type":"uint256","internalType":"uint256"},{"name":"_stakeAmount","type":"uint256","internalType":"uint256"},{"name":"_proposalURI","type":"string","internalType":"string"}],"outputs":[],"stateMutability":"nonpayable"},{"type":"function","name":"arbitrator","inputs":[],"outputs":[{"name":"","type":"address","internalType":"address"}],"stateMutability":"view"},{"type":"function","name":"assignTask","inputs":[{"name":"_taskId","type":"uint256","internalType":"uint256"},{"name":"_assignee","type":"address","internalType":"address"}],"outputs":[],"stateMutability":"nonpayable"},{"type":"function","name":"bulkAssignTasks","inputs":[{"name":"_taskIds","type":"uint256[]","internalType":"uint256[]"},{"name":"_assignees","type":"address[]","internalType":"address[]"}],"outputs":[],"stateMutability":"nonpayable"},{"type":"function","name":"cancelTask","inputs":[{"name":"_taskId","type":"uint256","internalType":"uint256"}],"outputs":[],"stateMutability":"nonpayable"},{"type":"function","name":"completeTask","inputs":[{"name":"_taskId","type":"uint256","internalType":"uint256"}],"outputs":[],"stateMutability":"nonpayable"},{"type":"function","name":"createTask","inputs":[{"name":"_metadataURI","type":"string","internalType":"string"}],"outputs":[{"name":"","type":"uint256","internalType":"uint256"}],"stateMutability":"payable"},{"type":"function","name":"createTaskWithDeadline","inputs":[{"name":"_metadataURI","type":"string","internalType":"string"},{"name":"_deadline","type":"uint256","internalType":"uint256"}],"outputs":[{"name":"","type":"uint256","internalType":"uint256"}],"stateMutability":"payable"},{"type":"function","name":"createTaskWithToken","inputs":[{"name":"_token","type":"address","internalType":"address"},{"name":"_amount","type":"uint256","internalType":"uint256"},{"name":"_metadataURI","type":"string","internalType":"string"}],"outputs":[{"name":"","type":"uint256","internalType":"uint256"}],"stateMutability":"nonpayable"},{"type":"function","name":"emergencyWithdraw","inputs":[{"name":"_token","type":"address","internalType":"address"},{"name":"_amount","type":"uint256","internalType":"uint256"}],"outputs":[],"stateMutability":"nonpayable"},{"type":"function","name":"extendDeadline","inputs":[{"name":"_taskId","type":"uint256","internalType":"uint256"}],"outputs":[],"stateMutability":"nonpayable"},{"type":"function","name":"getAgentStats","inputs":[{"name":"_agent","type":"address","internalType":"address"}],"outputs":[{"name":"totalTasks","type":"uint256","internalType":"uint256"},{"name":"completedTasks","type":"uint256","internalType":"uint256"},{"name":"disputedTasks","type":"uint256","internalType":"uint256"},{"name":"totalEarned","type":"uint256","internalType":"uint256"},{"name":"score","type":"uint256","internalType":"uint256"},{"name":"successRate","type":"uint256","internalType":"uint256"}],"stateMutability":"view"},{"type":"function","name":"getAgentTasks","inputs":[{"name":"_agent","type":"address","internalType":"address"}],"outputs":[{"name":"","type":"uint256[]","internalType":"uint256[]"}],"stateMutability":"view"},{"type":"function","name":"getTaskApplications","inputs":[{"name":"_taskId","type":"uint256","internalType":"uint256"}],"outputs":[{"name":"","type":"tuple[]","internalType":"struct ICognixMarket.Application[]","components":[{"name":"agent","type":"address","internalType":"address"},{"name":"proposalURI","type":"string","internalType":"string"},{"name":"stakedAmount","type":"uint256","internalType":"uint256"},{"name":"appliedAt","type":"uint256","internalType":"uint256"}]}],"stateMutability":"view"},{"type":"function","name":"getTaskCount","inputs":[],"outputs":[{"name":"","type":"uint256","internalType":"uint256"}],"stateMutability":"view"},{"type":"function","name":"getTasksByStatus","inputs":[{"name":"_status","type":"uint8","internalType":"enum ICognixMarket.TaskStatus"}],"outputs":[{"name":"","type":"uint256[]","internalType":"uint256[]"}],"stateMutability":"view"},{"type":"function","name":"getTopAgents","inputs":[{"name":"_limit","type":"uint256","internalType":"uint256"}],"outputs":[{"name":"","type":"address[]","internalType":"address[]"},{"name":"","type":"uint256[]","internalType":"uint256[]"}],"stateMutability":"view"},{"type":"function","name":"nativeToken","inputs":[],"outputs":[{"name":"","type":"address","internalType":"contract IERC20"}],"stateMutability":"view"},{"type":"function","name":"owner","inputs":[],"outputs":[{"name":"","type":"address","internalType":"address"}],"stateMutability":"view"},{"type":"function","name":"pause","inputs":[],"outputs":[],"stateMutability":"nonpayable"},{"type":"function","name":"paused","inputs":[],"outputs":[{"name":"","type":"bool","internalType":"bool"}],"stateMutability":"view"},{"type":"function","name":"platformFee","inputs":[],"outputs":[{"name":"","type":"uint256","internalType":"uint256"}],"stateMutability":"view"},{"type":"function","name":"raiseDispute","inputs":[{"name":"_taskId","type":"uint256","internalType":"uint256"}],"outputs":[],"stateMutability":"nonpayable"},{"type":"function","name":"renounceOwnership","inputs":[],"outputs":[],"stateMutability":"nonpayable"},{"type":"function","name":"resolveDispute","inputs":[{"name":"_taskId","type":"uint256","internalType":"uint256"},{"name":"_favorEmployer","type":"bool","internalType":"bool"}],"outputs":[],"stateMutability":"nonpayable"},{"type":"function","name":"setArbitrator","inputs":[{"name":"_newArbitrator","type":"address","internalType":"address"}],"outputs":[],"stateMutability":"nonpayable"},{"type":"function","name":"setPlatformFee","inputs":[{"name":"_fee","type":"uint256","internalType":"uint256"}],"outputs":[],"stateMutability":"nonpayable"},{"type":"function","name":"setTokenStatus","inputs":[{"name":"_token","type":"address","internalType":"address"},{"name":"_status","type":"bool","internalType":"bool"}],"outputs":[],"stateMutability":"nonpayable"},{"type":"function","name":"submitProof","inputs":[{"name":"_taskId","type":"uint256","internalType":"uint256"},{"name":"_proofURI","type":"string","internalType":"string"}],"outputs":[],"stateMutability":"nonpayable"},{"type":"function","name":"taskCount","inputs":[],"outputs":[{"name":"","type":"uint256","internalType":"uint256"}],"stateMutability":"view"},{"type":"function","name":"taskDeadlines","inputs":[{"name":"","type":"uint256","internalType":"uint256"}],"outputs":[{"name":"","type":"uint256","internalType":"uint256"}],"stateMutability":"view"},{"type":"function","name":"tasks","inputs":[{"name":"","type":"uint256","internalType":"uint256"}],"outputs":[{"name":"employer","type":"address","internalType":"address"},{"name":"assignee","type":"address","internalType":"address"},{"name":"token","type":"address","internalType":"address"},{"name":"metadataURI","type":"string","internalType":"string"},{"name":"reward","type":"uint256","internalType":"uint256"},{"name":"status","type":"uint8","internalType":"enum ICognixMarket.TaskStatus"},{"name":"createdAt","type":"uint256","internalType":"uint256"},{"name":"updatedAt","type":"uint256","internalType":"uint256"}],"stateMutability":"view"},{"type":"function","name":"transferOwnership","inputs":[{"name":"newOwner","type":"address","internalType":"address"}],"outputs":[],"stateMutability":"nonpayable"},{"type":"function","name":"unpause","inputs":[],"outputs":[],"stateMutability":"nonpayable"},{"type":"function","name":"updateTaskMetadata","inputs":[{"name":"_taskId","type":"uint256","internalType":"uint256"},{"name":"_newMetadataURI","type":"string","internalType":"string"}],"outputs":[],"stateMutability":"nonpayable"},{"type":"function","name":"verifiedAgents","inputs":[{"name":"","type":"address","internalType":"address"}],"outputs":[{"name":"","type":"bool","internalType":"bool"}],"stateMutability":"view"},{"type":"function","name":"verifyAgent","inputs":[{"name":"_agent","type":"address","internalType":"address"}],"outputs":[],"stateMutability":"nonpayable"},{"type":"function","name":"whitelistedTokens","inputs":[{"name":"","type":"address","internalType":"address"}],"outputs":[{"name":"","type":"bool","internalType":"bool"}],"stateMutability":"view"},{"type":"function","name":"withdrawStake","inputs":[{"name":"_taskId","type":"uint256","internalType":"uint256"}],"outputs":[],"stateMutability":"nonpayable"},{"type":"event","name":"AgentVerified","inputs":[{"name":"agent","type":"address","indexed":true,"internalType":"address"}],"anonymous":false},{"type":"event","name":"ArbitratorUpdated","inputs":[{"name":"newArbitrator","type":"address","indexed":true,"internalType":"address"}],"anonymous":false},{"type":"event","name":"DeadlineExtended","inputs":[{"name":"taskId","type":"uint256","indexed":true,"internalType":"uint256"},{"name":"newDeadline","type":"uint256","indexed":false,"internalType":"uint256"}],"anonymous":false},{"type":"event","name":"DeadlineSet","inputs":[{"name":"taskId","type":"uint256","indexed":true,"internalType":"uint256"},{"name":"deadline","type":"uint256","indexed":false,"internalType":"uint256"}],"anonymous":false},{"type":"event","name":"DisputeRaised","inputs":[{"name":"taskId","type":"uint256","indexed":true,"internalType":"uint256"},{"name":"raiser","type":"address","indexed":true,"internalType":"address"}],"anonymous":false},{"type":"event","name":"DisputeResolved","inputs":[{"name":"taskId","type":"uint256","indexed":true,"internalType":"uint256"},{"name":"completed","type":"bool","indexed":false,"internalType":"bool"}],"anonymous":false},{"type":"event","name":"EmergencyWithdraw","inputs":[{"name":"token","type":"address","indexed":true,"internalType":"address"},{"name":"amount","type":"uint256","indexed":false,"internalType":"uint256"}],"anonymous":false},{"type":"event","name":"OwnershipTransferred","inputs":[{"name":"previousOwner","type":"address","indexed":true,"internalType":"address"},{"name":"newOwner","type":"address","indexed":true,"internalType":"address"}],"anonymous":false},{"type":"event","name":"Paused","inputs":[{"name":"account","type":"address","indexed":false,"internalType":"address"}],"anonymous":false},{"type":"event","name":"PlatformFeeUpdated","inputs":[{"name":"newFee","type":"uint256","indexed":false,"internalType":"uint256"}],"anonymous":false},{"type":"event","name":"ProofSubmitted","inputs":[{"name":"taskId","type":"uint256","indexed":true,"internalType":"uint256"},{"name":"proofURI","type":"string","indexed":false,"internalType":"string"}],"anonymous":false},{"type":"event","name":"StakeWithdrawn","inputs":[{"name":"taskId","type":"uint256","indexed":true,"internalType":"uint256"},{"name":"agent","type":"address","indexed":true,"internalType":"address"},{"name":"amount","type":"uint256","indexed":false,"internalType":"uint256"}],"anonymous":false},{"type":"event","name":"TaskApplied","inputs":[{"name":"taskId","type":"uint256","indexed":true,"internalType":"uint256"},{"name":"agent","type":"address","indexed":true,"internalType":"address"},{"name":"stakedAmount","type":"uint256","indexed":false,"internalType":"uint256"},{"name":"proposalURI","type":"string","indexed":false,"internalType":"string"}],"anonymous":false},{"type":"event","name":"TaskAssigned","inputs":[{"name":"taskId","type":"uint256","indexed":true,"internalType":"uint256"},{"name":"assignee","type":"address","indexed":true,"internalType":"address"}],"anonymous":false},{"type":"event","name":"TaskCancelled","inputs":[{"name":"taskId","type":"uint256","indexed":true,"internalType":"uint256"}],"anonymous":false},{"type":"event","name":"TaskCompleted","inputs":[{"name":"taskId","type":"uint256","indexed":true,"internalType":"uint256"}],"anonymous":false},{"type":"event","name":"TaskCreated","inputs":[{"name":"taskId","type":"uint256","indexed":true,"internalType":"uint256"},{"name":"employer","type":"address","indexed":true,"internalType":"address"},{"name":"token","type":"address","indexed":false,"internalType":"address"},{"name":"reward","type":"uint256","indexed":false,"internalType":"uint256"},{"name":"metadataURI","type":"string","indexed":false,"internalType":"string"}],"anonymous":false},{"type":"event","name":"TaskMetadataUpdated","inputs":[{"name":"taskId","type":"uint256","indexed":true,"internalType":"uint256"},{"name":"newMetadataURI","type":"string","indexed":false,"internalType":"string"}],"anonymous":false},{"type":"event","name":"TokenWhitelistUpdated","inputs":[{"name":"token","type":"address","indexed":true,"internalType":"address"},{"name":"status","type":"bool","indexed":false,"internalType":"bool"}],"anonymous":false},{"type":"event","name":"Unpaused","inputs":[{"name":"account","type":"address","indexed":false,"internalType":"address"}],"anonymous":false},{"type":"error","name":"EnforcedPause","inputs":[]},{"type":"error","name":"ExpectedPause","inputs":[]},{"type":"error","name":"OwnableInvalidOwner","inputs":[{"name":"owner","type":"address","internalType":"address"}]},{"type":"error","name":"OwnableUnauthorizedAccount","inputs":[{"name":"account","type":"address","internalType":"address"}]},{"type":"error","name":"ReentrancyGuardReentrantCall","inputs":[]},{"type":"error","name":"SafeERC20FailedOperation","inputs":[{"name":"token","type":"address","internalType":"address"}]}],"bytecode":{"object":"0x608060405260fa600455348015610014575f5ffd5b506040516140db3803806140db8339810160408190526100339161011f565b60017f9b779b17422d0df92223018b32b4d1fa46e071723d6817e2486d003becc55f0055338061007c57604051631e4fbdf760e01b81525f600482015260240160405180910390fd5b610085816100d0565b50600280546001600160a01b03199081163317909155600380546001600160a01b039390931692909116821790555f908152600660205260409020805460ff1916600117905561014c565b5f80546001600160a01b038381166001600160a01b0319831681178455604051919092169283917f8be0079c531659141344cd1fd0a4f28419497f9722a3daafe3b4186f6b6457e09190a35050565b5f6020828403121561012f575f5ffd5b81516001600160a01b0381168114610145575f5ffd5b9392505050565b613f82806101595f395ff3fe608060405260043610610254575f3560e01c8063751a9ef61161013f578063b5695b38116100b3578063d8ea682111610078578063d8ea6821146107a0578063daf9c210146107bf578063e1758bd8146107ed578063e1e295581461080c578063f2fde38b1461082b578063ffe6f79a1461084a575f5ffd5b8063b5695b38146106ed578063b6cb58a514610739578063c17a340e1461074e578063d04088af14610762578063d4a8950514610781575f5ffd5b80638da5cb5b116101045780638da5cb5b1461061957806395ccea6714610635578063a5c1674e14610654578063ae82455f14610673578063b0eefabe146106a1578063b1e29ea4146106c0575f5ffd5b8063751a9ef6146105585780637a870b63146105845780637eec20a8146105b35780638456cb59146105d25780638d977672146105e6575f5ffd5b806334b25ee2116101d657806354de6e321161019b57806354de6e3214610436578063579138ae146104615780635c975abb146104745780636cc6cde11461049d5780636dbacf49146104d4578063715018a614610544575f5ffd5b806334b25ee2146103a6578063389b7533146103c55780633f4ba83a146103e45780634cd73548146103f85780635293ee8114610417575f5ffd5b806325d5971f1161021c57806325d5971f1461031557806326232a2e146103345780632af0051014610349578063306e25fc146103685780633074095214610387575f5ffd5b8063111002aa1461025857806312e8e2c31461027e5780631579259b1461029f5780631bf61f1b146102cb5780632503b177146102f6575b5f5ffd5b61026b610266366004613684565b610860565b6040519081526020015b60405180910390f35b348015610289575f5ffd5b5061029d6102983660046136c2565b610a7e565b005b3480156102aa575f5ffd5b506102be6102b93660046136d9565b610b02565b6040516102759190613731565b3480156102d6575f5ffd5b5061026b6102e53660046136c2565b600a6020525f908152604090205481565b348015610301575f5ffd5b5061029d610310366004613783565b610c6b565b348015610320575f5ffd5b5061029d61032f3660046136c2565b610f09565b34801561033f575f5ffd5b5061026b60045481565b348015610354575f5ffd5b5061029d6103633660046137ed565b61115a565b348015610373575f5ffd5b5061026b61038236600461384f565b6112c5565b348015610392575f5ffd5b5061029d6103a1366004613898565b611555565b3480156103b1575f5ffd5b5061029d6103c03660046138c0565b6115a8565b3480156103d0575f5ffd5b5061029d6103df3660046136c2565b611a38565b3480156103ef575f5ffd5b5061029d611b4b565b348015610403575f5ffd5b5061029d6104123660046138ea565b611b5d565b348015610422575f5ffd5b5061029d610431366004613912565b611bc4565b348015610441575f5ffd5b5061026b610450366004613898565b60086020525f908152604090205481565b61026b61046f366004613933565b611d91565b34801561047f575f5ffd5b505f54600160a01b900460ff165b6040519015158152602001610275565b3480156104a8575f5ffd5b506002546104bc906001600160a01b031681565b6040516001600160a01b039091168152602001610275565b3480156104df575f5ffd5b5061051c6104ee366004613898565b60096020525f9081526040902080546001820154600283015460038401546004909401549293919290919085565b604080519586526020860194909452928401919091526060830152608082015260a001610275565b34801561054f575f5ffd5b5061029d611ff3565b348015610563575f5ffd5b506105776105723660046136c2565b612004565b60405161027591906139a8565b34801561058f575f5ffd5b506105a361059e366004613a41565b61212c565b6040516102759493929190613a61565b3480156105be575f5ffd5b5061029d6105cd3660046136c2565b612202565b3480156105dd575f5ffd5b5061029d612416565b3480156105f1575f5ffd5b506106056106003660046136c2565b612426565b604051610275989796959493929190613aab565b348015610624575f5ffd5b505f546001600160a01b03166104bc565b348015610640575f5ffd5b5061029d61064f366004613b22565b612501565b34801561065f575f5ffd5b5061029d61066e3660046136c2565b6125f7565b34801561067e575f5ffd5b5061048d61068d366004613898565b600b6020525f908152604090205460ff1681565b3480156106ac575f5ffd5b5061029d6106bb366004613898565b612765565b3480156106cb575f5ffd5b506106df6106da3660046136c2565b612801565b604051610275929190613b4a565b3480156106f8575f5ffd5b5061070c610707366004613898565b6129d5565b604080519687526020870195909552938501929092526060840152608083015260a082015260c001610275565b348015610744575f5ffd5b5061026b60015481565b348015610759575f5ffd5b5060015461026b565b34801561076d575f5ffd5b5061029d61077c366004613baa565b612a37565b34801561078c575f5ffd5b5061029d61079b3660046137ed565b612c31565b3480156107ab575f5ffd5b506102be6107ba366004613898565b612da1565b3480156107ca575f5ffd5b5061048d6107d9366004613898565b60066020525f908152604090205460ff1681565b3480156107f8575f5ffd5b506003546104bc906001600160a01b031681565b348015610817575f5ffd5b5061029d6108263660046136c2565b612ee7565b348015610836575f5ffd5b5061029d610845366004613898565b6131e6565b348015610855575f5ffd5b5061026b62093a8081565b5f610869613220565b61087161323b565b5f34116108ba5760405162461bcd60e51b81526020600482015260126024820152710526577617264206d757374206265203e20360741b60448201526064015b60405180910390fd5b5f60015f81546108c990613bf4565b9190508190559050604051806101000160405280336001600160a01b031681526020015f6001600160a01b031681526020015f6001600160a01b0316815260200185858080601f0160208091040260200160405190810160405280939291908181526020018383808284375f92018290525093855250503460208401525060409091019081524260208083018290526040928301919091525f84815260058252829020835181546001600160a01b03199081166001600160a01b03928316178355928501516001830180548516918316919091179055928401516002820180549093169316929092179055606082015160038201906109c89082613c9c565b506080820151816004015560a0820151816005015f6101000a81548160ff021916908360058111156109fc576109fc613a97565b021790555060c0820151816006015560e08201518160070155905050336001600160a01b0316817f9d1a74ff76ed8be69c0f070201c5d6d58a0a971e56ad1b15a9d4efea4df9e3e75f348888604051610a589493929190613d7e565b60405180910390a39050610a7860015f516020613f2d5f395f51905f5255565b92915050565b610a86613265565b6103e8811115610ac75760405162461bcd60e51b815260206004820152600c60248201526b08ccaca40e8dede40d0d2ced60a31b60448201526064016108b1565b60048190556040518181527f45610d581145924dd7090a5017e5f2b1d6f42213bb2e95707ff86846bbfcb1ca9060200160405180910390a150565b60605f6001546001600160401b03811115610b1f57610b1f613c0c565b604051908082528060200260200182016040528015610b48578160200160208202803683370190505b5090505f60015b6001548111610bd357846005811115610b6a57610b6a613a97565b5f82815260056020819052604090912081015460ff1690811115610b9057610b90613a97565b03610bc15780838381518110610ba857610ba8613da5565b602090810291909101015281610bbd81613bf4565b9250505b80610bcb81613bf4565b915050610b4f565b505f816001600160401b03811115610bed57610bed613c0c565b604051908082528060200260200182016040528015610c16578160200160208202803683370190505b5090505f5b82811015610c6257838181518110610c3557610c35613da5565b6020026020010151828281518110610c4f57610c4f613da5565b6020908102919091010152600101610c1b565b50949350505050565b610c7361323b565b828114610cba5760405162461bcd60e51b8152602060048201526015602482015274082e4e4c2f240d8cadccee8d040dad2e6dac2e8c6d605b1b60448201526064016108b1565b600a831115610cfc5760405162461bcd60e51b815260206004820152600e60248201526d546f6f206d616e79207461736b7360901b60448201526064016108b1565b5f5b83811015610f02575f858583818110610d1957610d19613da5565b9050602002013590505f848484818110610d3557610d35613da5565b9050602002016020810190610d4a9190613898565b90505f82118015610d5d57506001548211155b610d795760405162461bcd60e51b81526004016108b190613db9565b5f828152600560205260409020546001600160a01b03163314610dd95760405162461bcd60e51b815260206004820152601860248201527727b7363c9032b6b83637bcb2b91031b0b71030b9b9b4b3b760411b60448201526064016108b1565b5f828152600560208190526040822081015460ff1690811115610dfe57610dfe613a97565b14610e405760405162461bcd60e51b81526020600482015260126024820152715461736b206e6f7420617661696c61626c6560701b60448201526064016108b1565b6001600160a01b038116610e895760405162461bcd60e51b815260206004820152601060248201526f496e76616c69642061737369676e656560801b60448201526064016108b1565b5f828152600560208190526040808320600180820180546001600160a01b0319166001600160a01b038816908117909155938201805460ff191690911790554260079091015551909184917f52476d55ecef5cf13caa64038f297fe6bbf865d9584a98b8722a15a6d5db128f9190a35050600101610cfe565b5050505050565b610f11613220565b610f1961323b565b5f81118015610f2a57506001548111155b610f465760405162461bcd60e51b81526004016108b190613db9565b5f818152600560205260409020600460058083015460ff1690811115610f6e57610f6e613a97565b1480610f925750600360058083015460ff1690811115610f9057610f90613a97565b145b610fd25760405162461bcd60e51b815260206004820152601160248201527015185cdac81b9bdd08199a5b9a5cda1959607a1b60448201526064016108b1565b5f82815260076020526040812090805b82548110156110a957336001600160a01b031683828154811061100757611007613da5565b5f9182526020909120600490910201546001600160a01b031614801561104d57505f83828154811061103b5761103b613da5565b905f5260205f20906004020160020154115b156110a15782818154811061106457611064613da5565b905f5260205f2090600402016002015491505f83828154811061108957611089613da5565b905f5260205f209060040201600201819055506110a9565b600101610fe2565b505f81116110f05760405162461bcd60e51b81526020600482015260146024820152734e6f207374616b6520746f20776974686472617760601b60448201526064016108b1565b600354611107906001600160a01b03163383613291565b604051818152339085907f459d5aef2c549903c1eeb1736f5728845d5ccf82537ddd5bf8035795eee892639060200160405180910390a350505061115760015f516020613f2d5f395f51905f5255565b50565b61116261323b565b5f8311801561117357506001548311155b61118f5760405162461bcd60e51b81526004016108b190613db9565b5f838152600560205260409020600101546001600160a01b031633146111f75760405162461bcd60e51b815260206004820152601e60248201527f4f6e6c792061737369676e65652063616e207375626d69742070726f6f66000060448201526064016108b1565b60015f84815260056020819052604090912081015460ff169081111561121f5761121f613a97565b146112605760405162461bcd60e51b815260206004820152601160248201527015185cdac81b9bdd08185cdcda59db9959607a1b60448201526064016108b1565b5f83815260056020819052604091829020908101805460ff19166002179055426007909101555183907fc577bdeb8da1059fec56a8d1554e25846f18ebf046c214b145cac25f76bda350906112b89085908590613de2565b60405180910390a2505050565b5f6112ce613220565b6112d661323b565b6001600160a01b0385165f9081526006602052604090205460ff166113355760405162461bcd60e51b8152602060048201526015602482015274151bdad95b881b9bdd081dda1a5d195b1a5cdd1959605a1b60448201526064016108b1565b5f84116113795760405162461bcd60e51b81526020600482015260126024820152710416d6f756e74206d757374206265203e20360741b60448201526064016108b1565b61138e6001600160a01b0386163330876132cb565b5f60015f815461139d90613bf4565b9190508190559050604051806101000160405280336001600160a01b031681526020015f6001600160a01b03168152602001876001600160a01b0316815260200185858080601f0160208091040260200160405190810160405280939291908181526020018383808284375f9201829052509385525050506020820188905260409091019081524260208083018290526040928301919091525f84815260058252829020835181546001600160a01b03199081166001600160a01b039283161783559285015160018301805485169183169190911790559284015160028201805490931693169290921790556060820151600382019061149d9082613c9c565b506080820151816004015560a0820151816005015f6101000a81548160ff021916908360058111156114d1576114d1613a97565b021790555060c0820151816006015560e08201518160070155905050336001600160a01b0316817f9d1a74ff76ed8be69c0f070201c5d6d58a0a971e56ad1b15a9d4efea4df9e3e78888888860405161152d9493929190613d7e565b60405180910390a3905061154d60015f516020613f2d5f395f51905f5255565b949350505050565b61155d613265565b6001600160a01b0381165f818152600b6020526040808220805460ff19166001179055517fe7d6bf5d30c0487ac50ca3ea0eb7664b6068db8faa1b74ae85b1a02edab3b11c9190a250565b6115b061323b565b6002546001600160a01b0316331461160a5760405162461bcd60e51b815260206004820152601b60248201527f4f6e6c792061726269747261746f722063616e207265736f6c7665000000000060448201526064016108b1565b5f8211801561161b57506001548211155b6116375760405162461bcd60e51b81526004016108b190613db9565b5f82815260056020819052604090912081015460ff168181111561165d5761165d613a97565b1461169e5760405162461bcd60e51b815260206004820152601160248201527015185cdac81b9bdd08191a5cdc1d5d1959607a1b60448201526064016108b1565b5f828152600560205260409020426007820155811561188c5760058101805460ff191660049081179091558101545f906116da90606490613df5565b90505f8183600401546116ed9190613e14565b60028401549091506001600160a01b03166117765782546040516001600160a01b039091169082156108fc029083905f818181858888f19350505050158015611738573d5f5f3e3d5ffd5b506002546040516001600160a01b039091169083156108fc029084905f818181858888f19350505050158015611770573d5f5f3e3d5ffd5b506117b3565b82546002840154611794916001600160a01b03918216911683613291565b60028054908401546117b3916001600160a01b03918216911684613291565b60048301546001808501546001600160a01b03165f9081526009602052604081206117e2939092909190613301565b66038d7ea4c6800083600401546117f99190613df5565b60018401546001600160a01b03165f9081526008602052604090205411156118685766038d7ea4c6800083600401546118329190613df5565b60018401546001600160a01b03165f908152600860205260408120805490919061185d908490613e14565b909155506118859050565b60018301546001600160a01b03165f908152600860205260408120555b5050611a05565b60058101805460ff1916600317905560048101545f906118ae90606490613df5565b90505f8183600401546118c19190613e14565b60028401549091506001600160a01b031661194d5760018301546040516001600160a01b039091169082156108fc029083905f818181858888f1935050505015801561190f573d5f5f3e3d5ffd5b506002546040516001600160a01b039091169083156108fc029084905f818181858888f19350505050158015611947573d5f5f3e3d5ffd5b5061198d565b6001830154600284015461196e916001600160a01b03918216911683613291565b600280549084015461198d916001600160a01b03918216911684613291565b60048301546001808501546001600160a01b03165f9081526009602052604081206119bb9390929091613301565b66038d7ea4c6800083600401546119d29190613df5565b60018401546001600160a01b03165f90815260086020526040812080549091906119fd908490613e27565b909155505050505b6040518215815283907f5a87909bff68caaaaf0b3fd9c74eeccc928832f879315e5c6fb7a73612f26c0c906020016112b8565b5f818152600560205260409020546001600160a01b03163314611a8d5760405162461bcd60e51b815260206004820152600d60248201526c27b7363c9032b6b83637bcb2b960991b60448201526064016108b1565b5f818152600a6020526040902054611ad95760405162461bcd60e51b815260206004820152600f60248201526e139bc8191958591b1a5b99481cd95d608a1b60448201526064016108b1565b5f818152600a60205260408120805462093a809290611af9908490613e27565b90915550505f818152600a60205260409081902054905182917f073d5fd87a7e0c2a384727f9aab2e84826370623aba582638b425a417e799a2c91611b4091815260200190565b60405180910390a250565b611b53613265565b611b5b6133cd565b565b611b65613265565b6001600160a01b0382165f81815260066020908152604091829020805460ff191685151590811790915591519182527f67821d5384bb02aab1ba91a477f89c9966cd30f475b02618bdc58712bca5127591015b60405180910390a25050565b611bcc61323b565b5f82118015611bdd57506001548211155b611bf95760405162461bcd60e51b81526004016108b190613db9565b5f828152600560205260409020546001600160a01b03163314611c595760405162461bcd60e51b815260206004820152601860248201527727b7363c9032b6b83637bcb2b91031b0b71030b9b9b4b3b760411b60448201526064016108b1565b5f828152600560208190526040822081015460ff1690811115611c7e57611c7e613a97565b14611cd55760405162461bcd60e51b815260206004820152602160248201527f5461736b206e6f7420617661696c61626c6520666f722061737369676e6d656e6044820152601d60fa1b60648201526084016108b1565b6001600160a01b038116611d1e5760405162461bcd60e51b815260206004820152601060248201526f496e76616c69642061737369676e656560801b60448201526064016108b1565b5f828152600560208190526040808320600180820180546001600160a01b0319166001600160a01b038816908117909155938201805460ff191690911790554260079091015551909184917f52476d55ecef5cf13caa64038f297fe6bbf865d9584a98b8722a15a6d5db128f9190a35050565b5f611d9a613220565b611da261323b565b5f3411611de65760405162461bcd60e51b81526020600482015260126024820152710526577617264206d757374206265203e20360741b60448201526064016108b1565b428211611e285760405162461bcd60e51b815260206004820152601060248201526f496e76616c696420646561646c696e6560801b60448201526064016108b1565b5f60015f8154611e3790613bf4565b9190508190559050604051806101000160405280336001600160a01b031681526020015f6001600160a01b031681526020015f6001600160a01b0316815260200186868080601f0160208091040260200160405190810160405280939291908181526020018383808284375f92018290525093855250503460208401525060409091019081524260208083018290526040928301919091525f84815260058252829020835181546001600160a01b03199081166001600160a01b0392831617835592850151600183018054851691831691909117905592840151600282018054909316931692909217905560608201516003820190611f369082613c9c565b506080820151816004015560a0820151816005015f6101000a81548160ff02191690836005811115611f6a57611f6a613a97565b021790555060c0820151600682015560e0909101516007909101555f818152600a602052604080822085905551339183917f9d1a74ff76ed8be69c0f070201c5d6d58a0a971e56ad1b15a9d4efea4df9e3e791611fcc9134908b908b90613d7e565b60405180910390a39050611fec60015f516020613f2d5f395f51905f5255565b9392505050565b611ffb613265565b611b5b5f613421565b606060075f8381526020019081526020015f20805480602002602001604051908101604052809291908181526020015f905b82821015612121575f84815260209081902060408051608081019091526004850290910180546001600160a01b03168252600181018054929391929184019161207e90613c20565b80601f01602080910402602001604051908101604052809291908181526020018280546120aa90613c20565b80156120f55780601f106120cc576101008083540402835291602001916120f5565b820191905f5260205f20905b8154815290600101906020018083116120d857829003601f168201915b505050505081526020016002820154815260200160038201548152505081526020019060010190612036565b505050509050919050565b6007602052815f5260405f208181548110612145575f80fd5b5f918252602090912060049091020180546001820180546001600160a01b03909216945091925061217590613c20565b80601f01602080910402602001604051908101604052809291908181526020018280546121a190613c20565b80156121ec5780601f106121c3576101008083540402835291602001916121ec565b820191905f5260205f20905b8154815290600101906020018083116121cf57829003601f168201915b5050505050908060020154908060030154905084565b61220a613220565b61221261323b565b5f8111801561222357506001548111155b61223f5760405162461bcd60e51b81526004016108b190613db9565b5f818152600560205260409020546001600160a01b031633146122a45760405162461bcd60e51b815260206004820152601860248201527f4f6e6c7920656d706c6f7965722063616e2063616e63656c000000000000000060448201526064016108b1565b5f818152600560208190526040822081015460ff16908111156122c9576122c9613a97565b14806122fa575060015f82815260056020819052604090912081015460ff16908111156122f8576122f8613a97565b145b61233b5760405162461bcd60e51b815260206004820152601260248201527143616e6e6f742063616e63656c207461736b60701b60448201526064016108b1565b5f818152600560208190526040909120908101805460ff1916600417905542600782015560028101546001600160a01b03166123b157805460048201546040516001600160a01b039092169181156108fc0291905f818181858888f193505050501580156123ab573d5f5f3e3d5ffd5b506123d5565b8054600482015460028301546123d5926001600160a01b0391821692911690613291565b60405182907fc6eacc3aa5b2aa77b5a826b832a804ca0b71830ec74f9aa57a15edd978c31ed6905f90a25061115760015f516020613f2d5f395f51905f5255565b61241e613265565b611b5b613470565b60056020525f908152604090208054600182015460028301546003840180546001600160a01b039485169593851694909216929161246390613c20565b80601f016020809104026020016040519081016040528092919081815260200182805461248f90613c20565b80156124da5780601f106124b1576101008083540402835291602001916124da565b820191905f5260205f20905b8154815290600101906020018083116124bd57829003601f168201915b505050506004830154600584015460068501546007909501549394919360ff909116925088565b612509613265565b5f811161254d5760405162461bcd60e51b81526020600482015260126024820152710416d6f756e74206d757374206265203e20360741b60448201526064016108b1565b6001600160a01b038216612597575f80546040516001600160a01b039091169183156108fc02918491818181858888f19350505050158015612591573d5f5f3e3d5ffd5b506125bc565b6125bc6125ab5f546001600160a01b031690565b6001600160a01b0384169083613291565b816001600160a01b03167f5fafa99d0643513820be26656b45130b01e1c03062e1266bf36f88cbd3bd969582604051611bb891815260200190565b6125ff61323b565b5f8111801561261057506001548111155b61262c5760405162461bcd60e51b81526004016108b190613db9565b60025f82815260056020819052604090912081015460ff169081111561265457612654613a97565b146126975760405162461bcd60e51b81526020600482015260136024820152724e6f2070726f6f6620746f206469737075746560681b60448201526064016108b1565b5f818152600560205260409020546001600160a01b03163314806126d357505f818152600560205260409020600101546001600160a01b031633145b6127105760405162461bcd60e51b815260206004820152600e60248201526d139bdd08185d5d1a1bdc9a5e995960921b60448201526064016108b1565b5f818152600560208190526040808320808301805460ff19169093179092554260079092019190915551339183917f84a477df8a28a4276ca6dee4458a06c3015f30c477d9c949ede4e13ff8a552b49190a350565b61276d613265565b6001600160a01b0381166127b85760405162461bcd60e51b815260206004820152601260248201527124b73b30b634b21030b93134ba3930ba37b960711b60448201526064016108b1565b600280546001600160a01b0319166001600160a01b0383169081179091556040517f961c543f04f95b46a6d6af9e463eb4f186ceea8ca52f869ec568c0197080401b905f90a250565b6060805f83118015612814575060648311155b6128505760405162461bcd60e51b815260206004820152600d60248201526c125b9d985b1a59081b1a5b5a5d609a1b60448201526064016108b1565b5f836001600160401b0381111561286957612869613c0c565b604051908082528060200260200182016040528015612892578160200160208202803683370190505b5090505f846001600160401b038111156128ae576128ae613c0c565b6040519080825280602002602001820160405280156128d7578160200160208202803683370190505b5090505f805b86811080156128eb57508682105b156129c9576128fb816001613e27565b84838151811061290d5761290d613da5565b60200260200101906001600160a01b031690816001600160a01b03168152505060085f85848151811061294257612942613da5565b60200260200101516001600160a01b03166001600160a01b031681526020019081526020015f205483838151811061297c5761297c613da5565b6020026020010181815250505f83838151811061299b5761299b613da5565b602002602001015111156129b757816129b381613bf4565b9250505b806129c181613bf4565b9150506128dd565b50919590945092505050565b5f5f5f5f5f5f5f60095f896001600160a01b03166001600160a01b031681526020019081526020015f209050805f01548160010154826002015483600301548460040154612a22866134b2565b949d939c50919a509850965090945092505050565b612a3f613220565b612a4761323b565b5f84118015612a5857506001548411155b612a745760405162461bcd60e51b81526004016108b190613db9565b5f848152600560208190526040822081015460ff1690811115612a9957612a99613a97565b14612adb5760405162461bcd60e51b81526020600482015260126024820152715461736b206e6f7420617661696c61626c6560701b60448201526064016108b1565b8215612af957600354612af9906001600160a01b03163330866132cb565b60075f8581526020019081526020015f206040518060800160405280336001600160a01b0316815260200184848080601f0160208091040260200160405190810160405280939291908181526020018383808284375f92018290525093855250505060208083018890524260409093019290925283546001808201865594825290829020835160049092020180546001600160a01b0319166001600160a01b03909216919091178155908201519192909190820190612bb89082613c9c565b5060408201518160020155606082015181600301555050336001600160a01b0316847fb98213a49a2554eb2b3dafb7f418f1ca099120d79a8d07ab4c407d895d71a3ff858585604051612c0d93929190613e3a565b60405180910390a3612c2b60015f516020613f2d5f395f51905f5255565b50505050565b612c3961323b565b5f83118015612c4a57506001548311155b612c665760405162461bcd60e51b81526004016108b190613db9565b5f838152600560205260409020546001600160a01b03163314612ccb5760405162461bcd60e51b815260206004820152601860248201527f4f6e6c7920656d706c6f7965722063616e20757064617465000000000000000060448201526064016108b1565b5f838152600560208190526040822081015460ff1690811115612cf057612cf0613a97565b14612d3d5760405162461bcd60e51b815260206004820152601b60248201527f43616e6e6f74207570646174652061737369676e6564207461736b000000000060448201526064016108b1565b5f838152600560205260409020600301612d58828483613e5c565b505f8381526005602052604090819020426007909101555183907f2e3914c603e1ed7f6ef8c0b0f1e78b0822d0e6715c08df2d7f5b5bb4b16728f0906112b89085908590613de2565b60605f6001546001600160401b03811115612dbe57612dbe613c0c565b604051908082528060200260200182016040528015612de7578160200160208202803683370190505b5090505f60015b6001548111612e58575f818152600560205260409020600101546001600160a01b03808716911603612e465780838381518110612e2d57612e2d613da5565b602090810291909101015281612e4281613bf4565b9250505b80612e5081613bf4565b915050612dee565b505f816001600160401b03811115612e7257612e72613c0c565b604051908082528060200260200182016040528015612e9b578160200160208202803683370190505b5090505f5b82811015610c6257838181518110612eba57612eba613da5565b6020026020010151828281518110612ed457612ed4613da5565b6020908102919091010152600101612ea0565b612eef613220565b612ef761323b565b5f81118015612f0857506001548111155b612f245760405162461bcd60e51b81526004016108b190613db9565b5f818152600560205260409020546001600160a01b03163314612f895760405162461bcd60e51b815260206004820152601a60248201527f4f6e6c7920656d706c6f7965722063616e20636f6d706c65746500000000000060448201526064016108b1565b60025f82815260056020819052604090912081015460ff1690811115612fb157612fb1613a97565b14612ff45760405162461bcd60e51b8152602060048201526013602482015272141c9bdbd9881b9bdd081cdd589b5a5d1d1959606a1b60448201526064016108b1565b5f8181526005602081905260408220908101805460ff1916600317905542600782015560048054908201549192916127109161302f91613f15565b6130399190613df5565b90505f81836004015461304c9190613e14565b60028401549091506001600160a01b03166130de5760018301546040516001600160a01b039091169082156108fc029083905f818181858888f1935050505015801561309a573d5f5f3e3d5ffd5b5081156130d9575f80546040516001600160a01b039091169184156108fc02918591818181858888f193505050501580156130d7573d5f5f3e3d5ffd5b505b61312e565b600183015460028401546130ff916001600160a01b03918216911683613291565b811561312e5761312e6131195f546001600160a01b031690565b60028501546001600160a01b03169084613291565b60048301546001808501546001600160a01b03165f90815260096020526040812061315c9390929091613301565b66038d7ea4c6800083600401546131739190613df5565b60018401546001600160a01b03165f908152600860205260408120805490919061319e908490613e27565b909155505060405184907fc1fa7142cfb933d0855114a3bffde296944c30b727f297c14d0db4d553d3a5c7905f90a250505061115760015f516020613f2d5f395f51905f5255565b6131ee613265565b6001600160a01b03811661321757604051631e4fbdf760e01b81525f60048201526024016108b1565b61115781613421565b6132286134df565b60025f516020613f2d5f395f51905f5255565b5f54600160a01b900460ff1615611b5b5760405163d93c066560e01b815260040160405180910390fd5b5f546001600160a01b03163314611b5b5760405163118cdaa760e01b81523360048201526024016108b1565b61329e838383600161350e565b6132c657604051635274afe760e01b81526001600160a01b03841660048201526024016108b1565b505050565b6132d9848484846001613570565b612c2b57604051635274afe760e01b81526001600160a01b03851660048201526024016108b1565b8354845f61330e83613bf4565b919050555082846003015f8282546133269190613e27565b909155508290508015613337575080155b1561337857600184018054905f61334d83613bf4565b919050555061335b836135dd565b846004015f82825461336d9190613e27565b90915550612c2b9050565b8015612c2b57600284018054905f61338f83613bf4565b91905055505f61339e846135fa565b9050808560040154116133b1575f6133c1565b8085600401546133c19190613e14565b60048601555050505050565b6133d5613617565b5f805460ff60a01b191690557f5db9ee0a495bf2e6ff9c91a7834c1ba4fdd244a5e8aa4e537bd38aeae4b073aa335b6040516001600160a01b03909116815260200160405180910390a1565b5f80546001600160a01b038381166001600160a01b0319831681178455604051919092169283917f8be0079c531659141344cd1fd0a4f28419497f9722a3daafe3b4186f6b6457e09190a35050565b61347861323b565b5f805460ff60a01b1916600160a01b1790557f62e78cea01bee320cd4e420270b5ea74000d11b0c9f74754ebdbfc544b05a2586134043390565b80545f9081036134c357505f919050565b815460018301546134d5906064613f15565b610a789190613df5565b5f516020613f2d5f395f51905f5254600203611b5b57604051633ee5aeb560e01b815260040160405180910390fd5b60405163a9059cbb60e01b5f8181526001600160a01b038616600452602485905291602083604481808b5af1925060015f51148316613564578383151615613558573d5f823e3d81fd5b5f873b113d1516831692505b60405250949350505050565b6040516323b872dd60e01b5f8181526001600160a01b038781166004528616602452604485905291602083606481808c5af1925060015f511483166135cc5783831516156135c0573d5f823e3d81fd5b5f883b113d1516831692505b604052505f60605295945050505050565b5f6135ef66038d7ea4c6800083613df5565b610a7890600a613e27565b5f61360c66038d7ea4c6800083613df5565b610a78906005613e27565b5f54600160a01b900460ff16611b5b57604051638dfc202b60e01b815260040160405180910390fd5b5f5f83601f840112613650575f5ffd5b5081356001600160401b03811115613666575f5ffd5b60208301915083602082850101111561367d575f5ffd5b9250929050565b5f5f60208385031215613695575f5ffd5b82356001600160401b038111156136aa575f5ffd5b6136b685828601613640565b90969095509350505050565b5f602082840312156136d2575f5ffd5b5035919050565b5f602082840312156136e9575f5ffd5b813560068110611fec575f5ffd5b5f8151808452602084019350602083015f5b82811015613727578151865260209586019590910190600101613709565b5093949350505050565b602081525f611fec60208301846136f7565b5f5f83601f840112613753575f5ffd5b5081356001600160401b03811115613769575f5ffd5b6020830191508360208260051b850101111561367d575f5ffd5b5f5f5f5f60408587031215613796575f5ffd5b84356001600160401b038111156137ab575f5ffd5b6137b787828801613743565b90955093505060208501356001600160401b038111156137d5575f5ffd5b6137e187828801613743565b95989497509550505050565b5f5f5f604084860312156137ff575f5ffd5b8335925060208401356001600160401b0381111561381b575f5ffd5b61382786828701613640565b9497909650939450505050565b80356001600160a01b038116811461384a575f5ffd5b919050565b5f5f5f5f60608587031215613862575f5ffd5b61386b85613834565b93506020850135925060408501356001600160401b0381111561388c575f5ffd5b6137e187828801613640565b5f602082840312156138a8575f5ffd5b611fec82613834565b8035801515811461384a575f5ffd5b5f5f604083850312156138d1575f5ffd5b823591506138e1602084016138b1565b90509250929050565b5f5f604083850312156138fb575f5ffd5b61390483613834565b91506138e1602084016138b1565b5f5f60408385031215613923575f5ffd5b823591506138e160208401613834565b5f5f5f60408486031215613945575f5ffd5b83356001600160401b0381111561395a575f5ffd5b61396686828701613640565b909790965060209590950135949350505050565b5f81518084528060208401602086015e5f602082860101526020601f19601f83011685010191505092915050565b5f602082016020835280845180835260408501915060408160051b8601019250602086015f5b82811015613a3557868503603f19018452815180516001600160a01b03168652602080820151608091880182905290613a099088018261397a565b6040838101519089015260609283015192909701919091525060209384019391909101906001016139ce565b50929695505050505050565b5f5f60408385031215613a52575f5ffd5b50508035926020909101359150565b6001600160a01b03851681526080602082018190525f90613a849083018661397a565b6040830194909452506060015292915050565b634e487b7160e01b5f52602160045260245ffd5b6001600160a01b038981168252888116602083015287166040820152610100606082018190525f90613adf9083018861397a565b905085608083015260068510613b0357634e487b7160e01b5f52602160045260245ffd5b8460a08301528360c08301528260e08301529998505050505050505050565b5f5f60408385031215613b33575f5ffd5b613b3c83613834565b946020939093013593505050565b604080825283519082018190525f9060208501906060840190835b81811015613b8c5783516001600160a01b0316835260209384019390920191600101613b65565b50508381036020850152613ba081866136f7565b9695505050505050565b5f5f5f5f60608587031215613bbd575f5ffd5b843593506020850135925060408501356001600160401b0381111561388c575f5ffd5b634e487b7160e01b5f52601160045260245ffd5b5f60018201613c0557613c05613be0565b5060010190565b634e487b7160e01b5f52604160045260245ffd5b600181811c90821680613c3457607f821691505b602082108103613c5257634e487b7160e01b5f52602260045260245ffd5b50919050565b601f8211156132c657805f5260205f20601f840160051c81016020851015613c7d5750805b601f840160051c820191505b81811015610f02575f8155600101613c89565b81516001600160401b03811115613cb557613cb5613c0c565b613cc981613cc38454613c20565b84613c58565b6020601f821160018114613cfb575f8315613ce45750848201515b5f19600385901b1c1916600184901b178455610f02565b5f84815260208120601f198516915b82811015613d2a5787850151825560209485019460019092019101613d0a565b5084821015613d4757868401515f19600387901b60f8161c191681555b50505050600190811b01905550565b81835281816020850137505f828201602090810191909152601f909101601f19169091010190565b60018060a01b0385168152836020820152606060408201525f613ba0606083018486613d56565b634e487b7160e01b5f52603260045260245ffd5b6020808252600f908201526e125b9d985b1a59081d185cdac81251608a1b604082015260600190565b602081525f61154d602083018486613d56565b5f82613e0f57634e487b7160e01b5f52601260045260245ffd5b500490565b81810381811115610a7857610a78613be0565b80820180821115610a7857610a78613be0565b838152604060208201525f613e53604083018486613d56565b95945050505050565b6001600160401b03831115613e7357613e73613c0c565b613e8783613e818354613c20565b83613c58565b5f601f841160018114613eb8575f8515613ea15750838201355b5f19600387901b1c1916600186901b178355610f02565b5f83815260208120601f198716915b82811015613ee75786850135825560209485019460019092019101613ec7565b5086821015613f03575f1960f88860031b161c19848701351681555b505060018560011b0183555050505050565b8082028115828204841417610a7857610a78613be056fe9b779b17422d0df92223018b32b4d1fa46e071723d6817e2486d003becc55f00a2646970667358221220987a6d282cb15dbec6cf2546254e8c8a835a672c173e2783159b603ba3760af064736f6c634300081c0033","linkReferences":{}},"methodIdentifiers":{"DEADLINE_EXTENSION()":"ffe6f79a","agentReputation(address)":"54de6e32","agentStats(address)":"6dbacf49","applications(uint256,uint256)":"7a870b63","applyForTask(uint256,uint256,string)":"d04088af","arbitrator()":"6cc6cde1","assignTask(uint256,address)":"5293ee81","bulkAssignTasks(uint256[],address[])":"2503b177","cancelTask(uint256)":"7eec20a8","completeTask(uint256)":"e1e29558","createTask(string)":"111002aa","createTaskWithDeadline(string,uint256)":"579138ae","createTaskWithToken(address,uint256,string)":"306e25fc","emergencyWithdraw(address,uint256)":"95ccea67","extendDeadline(uint256)":"389b7533","getAgentStats(address)":"b5695b38","getAgentTasks(address)":"d8ea6821","getTaskApplications(uint256)":"751a9ef6","getTaskCount()":"c17a340e","getTasksByStatus(uint8)":"1579259b","getTopAgents(uint256)":"b1e29ea4","nativeToken()":"e1758bd8","owner()":"8da5cb5b","pause()":"8456cb59","paused()":"5c975abb","platformFee()":"26232a2e","raiseDispute(uint256)":"a5c1674e","renounceOwnership()":"715018a6","resolveDispute(uint256,bool)":"34b25ee2","setArbitrator(address)":"b0eefabe","setPlatformFee(uint256)":"12e8e2c3","setTokenStatus(address,bool)":"4cd73548","submitProof(uint256,string)":"2af00510","taskCount()":"b6cb58a5","taskDeadlines(uint256)":"1bf61f1b","tasks(uint256)":"8d977672","transferOwnership(address)":"f2fde38b","unpause()":"3f4ba83a","updateTaskMetadata(uint256,string)":"d4a89505","verifiedAgents(address)":"ae82455f","verifyAgent(address)":"30740952","whitelistedTokens(address)":"daf9c210","withdrawStake(uint256)":"25d5971f"},"id":33}